:020000040000FA
:1000000000008031282808007E1480314E01961AA5
:100010008C1E0E288D31472580312628161A0C1E7D
:1000200015288731CD27803126280B1F2628991ABD
:100030008F1E212840016D088A006C080A0080315B
:1000400026281A18101C26288D3195257E100900A7
:1000500080312A282030F601F701F80184000030B1
:10006000850028308D313A257E1040018431122CD4
:100070004001C601C501AC01AD01AE01AF01C00137
:10008000BF01C301C201C101B801B901BA01BB017D
:100090000130EE00E82680310B304702031C552862
:1000A000E4268031892680314C284708C800053075
:1000B000C901CA00CB01CF264808B4004908B500E1
:1000C000890D893B8909B600B70008004E01161258
:1000D00096124001DD01DD0A6025803140015D0896
:1000E00003190800F32680314001B801B901BA01B3
:1000F000BB018C1A79283B08DC003A08DB00390880
:10010000DA003808D9008C1AA72859083802D50017
:100110005A08393BD6005B083A3BD7005C083B3BAA
:10012000D8005808031D9E285708031D9E2856080E
:10013000031D9E2833305502031C83285D25803122
:100140008926803124224E011616961608005D2558
:10015000803162304001D5006530890BAD28D50B68
:10016000AD2800324001C70A0B304702031C6C283F
:100170000130C7006C282023803131238031A22533
:1001800080319D25803141304001CC00EE30890B1B
:10019000C728CC0BC72800002D23803141304001F7
:1001A000CC00EE30890BD228CC0BD22800002923BA
:1001B000803141304001CC00EE30890BDD28CC0B82
:1001C000DD2800002523803141304001CC00EE3095
:1001D000890BE828CC0BE8280000592580314130F4
:1001E0004001CC00EE30890BF328CC0BF328000043
:1001F00008005925803125238031292380312D2382
:10020000803140010130CC01CD0040014C084D044B
:1002100003192F294D08C9004C08C800D02380318C
:1002200040014D08C9004C08C800BA238031400184
:100230004D08C9004C08C800E623803140014D0834
:10024000C9004C08C800FC23803101304001CC02B9
:100250000030CD3BA630890B2B29003205295925CA
:10026000803125238031292380312D2B5925803160
:1002700025238031292380312D238031FF30400117
:10028000CC000330CD0040014C084D0403196D290A
:100290004D08C9004C08C800D023803140014D08EA
:1002A000C9004C08C800BA23803140014D08C9007C
:1002B0004C08C800E623803140014D08C9004C08B5
:1002C000C800FC23803101304001CC020030CD3B1E
:1002D000A630890B6929003243295925803125230D
:1002E0008031292380312D2B20238031312380310F
:1002F000A22580319D258031A3304001CC005530AE
:10030000890B8029CC0B8029592580312523803108
:10031000292380312D238031A3304001CC0055307A
:10032000890B9029CC0B90292023803131238031F7
:10033000A22580319D258031A3304001CC0055306D
:10034000890BA029CC0BA029592580312523803188
:10035000292380312D2B1630362380314908BD00EA
:100360004808BC005925803125238031292380315C
:100370002D23803141304001CC00EE30890BBE2965
:10038000CC0BBE290000013040013D02E1300319D1
:100390003C02031C542B2023803162304001CC00EE
:1003A0006530890BD129CC0BD129003202304001B4
:1003B0003D02003003193C02031C762B31238031AF
:1003C00062304001CC006530890BE429CC0BE42974
:1003D0000032023040013D022F3003193C02031C61
:1003E000982BA225803162304001CC006530890B0A
:1003F000F729CC0BF72900329D258031823040014E
:10040000CC00DD30890B022ACC0B022A00322D23CE
:10041000803182304001CC00DD30890B0D2ACC0BBD
:100420000D2A00329D25803182304001CC00DD3024
:10043000890B182ACC0B182A00322D23803159251C
:10044000803125238031292B592580312523803186
:10045000292380312D23803121304001CC0076309A
:10046000890B302ACC0B302A000020238031312325
:100470008031A22580319D25803121304001CC0082
:100480007630890B412ACC0B412A00005925803156
:1004900025238031292380312D23803121304001D3
:1004A000CC007630890B522ACC0B522A0000202334
:1004B000803131238031A22580319D25803121304A
:1004C0004001CC007630890B632ACC0B632A0000F4
:1004D0005925803125238031292380312D238031F6
:1004E00021304001CC007630890B742ACC0B742A61
:1004F00000002023803131238031A22580319D25C9
:10050000803121304001CC007630890B852ACC0B1C
:10051000852A000059258031252380312923803107
:100520002D2B5925803125238031292380312D23FE
:10053000803121304001CC007630890B9D2ACC0BD4
:100540009D2A0000202380312523803129238031FA
:100550002D23803121304001CC007630890BAE2A2A
:10056000CC0BAE2A00002023803131238031292397
:1005700080312D23803121304001CC007630890B31
:10058000BF2ACC0BBF2A00002023803131238031C9
:10059000292380319D25803121304001CC007630E7
:1005A000890BD02ACC0BD02A0000202380313123A4
:1005B0008031A22580319D25803121304001CC0041
:1005C0007630890BE12ACC0BE12A00002023803110
:1005D00025238031A22580319D25803121304001A5
:1005E000CC007630890BF22ACC0BF22A00002023B3
:1005F000803125238031A22580312D238031213087
:100600004001CC007630890B032BCC0B032B000070
:100610002023803125238031292380312D238031EF
:1006200021304001CC007630890B142BCC0B142BDD
:1006300000005925803125238031292380312D2B3D
:1006400064304001C800C901D02B4001C801C90174
:10065000BA2B4001C801C901E62B4001C801C901FC
:10066000FC2B64304001C800C901BA2B4001CB000B
:10067000CA00CA0DCA0D41011D0840014A060339CE
:100680004A0641019D001D14000041019D149D1862
:10069000472B1C084001C900C80141011B0840014B
:1006A000C8070318C90A080020238031823040019E
:1006B000CC00DD30890B5A2BCC0B5A2B003259253C
:1006C000803182304001CC00DD30890B652BCC0BB2
:1006D000652B00322023803182304001CC00DD3098
:1006E000890B702BCC0B702B0032592D31238031AC
:1006F00082304001CC00DD30890B7C2BCC0B7C2B75
:1007000000322523803182304001CC00DD30890B5E
:10071000872BCC0B872B0032312380318230400174
:10072000CC00DD30890B922BCC0B922B0032252B89
:10073000A225803182304001CC00DD30890B9E2B18
:10074000CC0B9E2B00322923803182304001CC001B
:10075000DD30890BA92BCC0BA92B0032A2258031CF
:1007600082304001CC00DD30890BB42BCC0BB42B94
:100770000032292B4908CB004808CA00CB36CA0CE6
:10078000CB36CA0C4A084601990040014808033993
:10079000CA00CA0CCA0C4A0CC039460198000800AD
:1007A0004908CB004808CA00CB36CA0CCB36CA0C65
:1007B0004A0846019500400148080339CA00CA0C9E
:1007C000CA0C4A0CC0394601940008004908CB0005
:1007D0004808CA00CB36CA0CCB36CA0C4A084601B8
:1007E0009D00400148080339CA00CA0CCA0C4A0CD3
:1007F000C03946019C0008004908CB004808CA00DF
:10080000CB36CA0CCB36CA0C4A0847018D004001D2
:1008100048080339CA00CA0CCA0C4A0CC03947013F
:100820008C000800C02580318B170B173830400131
:10083000C8000730C900A7258031F630C80006304F
:10084000C900AC258031A930C8000630C900B125E7
:1008500080318130C8000730C900B6258031403072
:10086000C8000D30C900BB2580315D25803138209E
:1008700080315925803125238031292380312D2352
:100880008031BB208031A926803151018C17AB21EA
:1008900080312B2580312B2580312B258031172D60
:1008A00046080319902C30083802DE003108393B25
:1008B000DF0032083A3BE00033083B3BE1006108CF
:1008C000031D6C2C6008031D6C2C5F08031D6C2C31
:1008D00064305E02031C752C8B1336218031E426B4
:1008E0008031892680310100902C30083802DE00EA
:1008F0003108393BDF0032083A3BE00033083B3B2C
:10090000E1006108031D8E2C6008031D8E2C5F081A
:10091000031D8E2C32305E02031C902C2B2580315F
:10092000400143080319992C6620803101004001E1
:10093000C301410803199E2C2B2580314001450835
:10094000031940080319E82C2C083802DE002D0892
:10095000393BDF002E083A3BE0002F083B3BE1002B
:100960006108031DBD2C6008031DBD2C5F08031D1D
:10097000BD2C1E305E02031CBF2C0130C00040089D
:100980000319E82C8B13912280314001C401C0016E
:10099000C5014708C8000530C901CA00CB01CF26F0
:1009A00080314808B4004908B500890D893B8909A0
:1009B000B600B700A12680310030A42680318726FA
:1009C000803140014608031DE72C5D2580318B17DF
:1009D000400144080319132D2B25803140012808BC
:1009E0003802DE002908393BDF002A083A3BE000E4
:1009F0002B083B3BE1006108031D082D6008031D27
:100A0000082D5F08031D082D64305E02031C132DA2
:100A10008B13C4014608031D122D4508031D122D1A
:100A20005D2580318B176300172DF920803103304D
:100A300040013E060319502C3E080319152D3E0BAC
:100A4000242DAB218031172D02303E06031D172DBA
:100A500074218031172D6025803141304001CE0056
:100A6000EE30890B312DCE0B312D00005925803110
:100A700025238031292380312D23803141304001CD
:100A8000CE00EE30890B422DCE0B422D00006025AA
:100A9000803141304001CE00EE30890B4D2DCE0B20
:100AA0004D2D0000592580312523803129238031A7
:100AB0002D2B4001C801C901D02B44010E100800A4
:100AC0005925803125238031292380312D23803100
:100AD00040014708CC00CD014D08003A03198F2D85
:100AE0009C2D202B312BA22D9D2D202380319D2D3F
:100AF000312380319D2D9D258031A22D20238031F1
:100B0000A22580319D2D31238031A22580319D2D5C
:100B10002023803131238031A22580319D2D4C0846
:100B2000FF3E031C080084000A300402031808007A
:100B300088310435003E8200080064304001C8005E
:100B4000C901FC2B64304001C800C901E62B4908EB
:100B5000FA004808F90008004908EB004808EA00D4
:100B600008004908E9004808E80008004908E700CB
:100B70004808E60008004908E3004808E2000800C9
:100B800034268031E9258031DF25803153268031BC
:100B9000D7258031432680313C268031792680312B
:100BA0004B2680315B268D3165258D31792D0130C5
:100BB00041019D00F0309E009B019C0108006230C5
:100BC00051018D008F01910102309300900192013B
:100BD000080004304001980010309900A8309A00B5
:100BE0003B309200F030930057309400FF307E018C
:100BF000CE003030C3001730B800C030C4003030F1
:100C0000B9000230CF000430BA001030C500A9305E
:100C1000D0003F30BB00C601D100BF12BE16BD16CA
:100C20004A13CA134917C9174817C8173730400164
:100C3000C8000D30C900A72580313830C8000D30FC
:100C4000C900AC2580313930C8000D30C900B1254C
:100C50004E0116160D307E01A3000C3092000E30AE
:100C6000A5000B30A70008004F01960197019801DD
:100C700099019A019B01080090309600FF30950081
:100C8000C03094000800903046019A007F309900EF
:100C9000C03098000800903046019E007F309D00D3
:100CA000C0309C000800903047018E007F308D00DE
:100CB000C0308C00080044018F0190010130910088
:100CC0009E308D0058308C000D084001E500E40195
:100CD00044010C084001E4044E0110101A14FF30C6
:100CE0004001C8000730C900BB25013044018E0017
:100CF00008000130450190008F019101FF308D0007
:100D00008C014E019010803045018E0008009E1726
:100D10000800C0304001C8000E30C900CA01CA0A2C
:100D2000CB018E311A268031C030C8000E30C90088
:100D30004730CA00CB01CB0ACC018E316426EE01CC
:100D400008004B019E1308004001C8004B019C00A5
:100D500008007E1CAD2E8D31DF2D163036238031FC
:100D60004908BD004808BC000330BE008D1BBB2EE7
:100D70000130BE00080002303D027B3003193C0206
:100D8000031CC72E3E0BC72E0230BE0008000130E8
:100D90003D02D23003193C02031CBE010800CC0105
:100DA000CD01481CD72E4A08CC074B08CD3DCA358B
:100DB000CB0DC936C80C48084904031DD12E4D0877
:100DC000C9004C08C800080002304001C7000800F4
:100DD000C030C8000E30C9004730CA00CB01CB0A72
:100DE000CC018D31B72D44010E1408000D1F0F2FBB
:100DF0000130C5004608031D052F4408031D052FBB
:100E0000B801B901BA01BB01B52740013B08AF00E9
:100E10003A08AE003908AD003808AC0008004508B3
:100E200003192F2F2C083802F0002D08393BF10050
:100E30002E083A3BF2002F083B3BF3007308031DDA
:100E40002B2F7208031D2B2F7108031D2B2F1F3012
:100E50007002031C2E2F0130C0002F2FC001C501CE
:100E60004608031D08004408031D08007E270800EB
:100E700040018C1A522F0130C6004508031D482F2F
:100E80004408031D482FB801B901BA01BB01B527B9
:100E900040013B08B3003A08B2003908B1003808F5
:100EA000B000080046080319752F30083802F0001A
:100EB0003108393BF10032083A3BF20033083B3B42
:100EC000F3007308031D6E2F7208031D6E2F710847
:100ED000031D6E2F33307002031C722F0130C300CC
:100EE000C101752FC3010130C100C6014508031DB2
:100EF00008004408031D08007E27080044010E1066
:100F000008000130B4020030B53BB63BB73B3708B0
:100F1000360435043404031D08000130C4004508BC
:100F2000031D9B2F4608031D9B2FB801B901BA0171
:100F3000BB01B527863140013B08AB003A08AA0047
:100F40003908A9003808A8004708F0000530F10169
:100F5000F200F301B8277008B4007108B500890DDC
:100F6000893B8909B600B700080044010E14080047
:100F7000F401F501701CC02F7208F4077308F53DE9
:100F8000F235F30DF136F00C70087104031DBA2F21
:100F90007508F1007408F00008007E01BF1ED22F12
:100FA000D92787314A1FD62FE5278731CA1F080066
:100FB000F22F79087A040319E22F7A088A00790857
:100FC0000A0087317E01BF12080040016A086B04E5
:100FD0000319EF2F6B088A006A080A0087317E0127
:100FE0004A1308004001680869040319FC2F6908C6
:100FF0008A0068080A0087317E01CA1308000800C9
:101000008531712D8531722D8531732D8531742D8A
:101010008531752D8531782D85317B2D85317E2D5E
:081020008531832D8531882DF7
:101A6E00080008000800640080010131890B3B2D3D
:101A7E0000340130B8070030B93DBA3DBB3D080017
:101A8E008C124001660867040319080067088A0073
:101A9E0066080A008D31080042019D1C582D1D124A
:101AAE001D167808203E8600870119088100F80A65
:101ABE00083078020318F801F60A08004F304B017F
:101ACE009F00E4309D009C014E018C12961603304F
:101ADE004001C8000030C9008531B62581304B0168
:101AEE009E0008004E01991253304001C8000D307F
:101AFE00C9009025083042019F009D0104309E00D0
:101B0E0001309B009C01F801F701F6014E01991678
:101B1E0008004908ED004808EC00080010104001CC
:101B2E006508F1006408F000A8258D3140016208B7
:101B3E0063040319080063088A0062080A008D31E5
:101B4E00080044010E1DB22D0E1071088D00700894
:101B5E008C000E14080071088D0070088C000800AF
:101B6E0050011E134001490850019B0040014808D6
:101B7E0050019A004001CE01CF014C084F02031DC7
:101B8E00CA2D4B084E020318080050011E144001C6
:101B9E004E084A07CD008600870150011C088100BF
:101BAE009A0A03199B0A4001CE0A0319CF0AC42DC3
:101BBE00163002268D3171084001BD007008BC0040
:101BCE000330BE008D1BEE2D0130BE00080002302A
:101BDE003D027B3003193C02031CFA2D3E0BFA2DFD
:101BEE000230BE00080001303D02D23003193C0223
:101BFE00031CBE010800F300F200F20DF20D4101CC
:101C0E001D087206033972069D001D140000410165
:101C1E009D149D18102E1C08F100F0011B08F007F2
:101C2E000318F10A08004B08D2004A08D10005300B
:101C3E00D236D10C890B1F2E4A081F3903192A2EB2
:101C4E00D10A0319D20A00308B1B0130D000D30108
:101C5E00D40152085402031D362E510853020318A4
:101C6E0008005408CD005308CC000530CC35CD0DFE
:101C7E00890B3D2E48084C07CE0049084D3DCF003C
:101C8E004E0850019A0040014F0850019B001E1350
:101C9E001E161E158B1355309F00AA309F009E14E2
:101CAE004001500C031C8B1303188B1750011E118F
:101CBE004001D30A0319D40A302E490850019B0063
:101CCE004001480850019A0040014A08CE005001D8
:101CDE001E131E159E1600308B1B01304001CF00C7
:101CEE008B13D001D1014C085102031D802E4B08DD
:101CFE0050020318A92E50084E07CD00860087010A
:101D0E00010850019C009D011E198F2E1E159E1656
:101D1E001A081F3A1F3903199A2E55309F00AA3000
:101D2E009F009E14A12E9E1255309F00AA309F0038
:101D3E009E141E119A0A03199B0A4001D00A031918
:101D4E00D10A7A2E50011E1DB92EE0309A051F3091
:101D5E009A0703189B0A9E1255309F00AA309F00C7
:101D6E009E141E1140014F0C031C8B1303188B176E
:021D7E0008005B
:020000040001F9
:0A000E00EC3FFF3F9F3FFF3FFF3F25
:00000001FF
