:020000040000FA
:10000000000080312F2808007E1480314E01961A9E
:100010008C1E0E288C31B82480312D28161A0C1E07
:1000200015288D31362580312D280B1F2D28981845
:100030008E1C1E288C31AC2480312D28991A8F1EDD
:10004000282840016F088A006E080A0080312D2898
:100050001A18101C2D288D3114257E1009008031AE
:1000600031282030F901FA01FB01840000308500BD
:1000700028308C3197247E10400181313E294E0179
:10008000161296124001DD01DD0A01248031400183
:100090005D08031908008C318F2480314001B801BC
:1000A000B901BA01BB018C1A53283B08DC003A089D
:1000B000DB003908DA003808D9008C1A8128590881
:1000C0003802D5005A08393BD6005B083A3BD700C6
:1000D0005C083B3BD8005808031D78285708031DCF
:1000E00078285608031D782833305502031C5D28F4
:1000F000C0228031772680313E244E011616961696
:100100000800C022803162304001D5006530890B83
:100110008728D50B872800324001C70A0B304702D9
:10012000031C45280130C7004528C4258031B82567
:100130008031BC258031C02580313C304001CD006C
:10014000CE0140014D084E040319BB284E08C900DA
:100150004D08C800D725803101304001CD02003064
:10016000CE3B04304001CC003D30890BB528CC0B90
:10017000B5280032A128C4258031B8258031BC259E
:100180008031C02DC4258031B8258031BC25803117
:10019000C0258031FF304001CC000330CD0040014C
:1001A0004C084D040319F9284D08C9004C08C80033
:1001B000D725803140014D08C9004C08C8008F2662
:1001C000803140014D08C9004C08C800A526803187
:1001D00040014D08C9004C08C800BB2680310130E1
:1001E0004001CC020030CD3BA630890BF52800320F
:1001F000CF28C4258031B8258031BC258031C02D61
:10020000B3258031C8258031CD258031D22580317C
:1002100041304001CC00EE30890B0C29CC0B0C296D
:100220000000C025803141304001CC00EE30890B08
:100230001729CC0B17290000BC2580314130400123
:10024000CC00EE30890B2229CC0B22290000B825E6
:10025000803141304001CC00EE30890B2D29CC0B90
:100260002D290000C425803141304001CC00EE3002
:10027000890B3829CC0B382900000800DC2280319A
:100280004F019717181798141814191499141A1461
:100290001A161A179A17FF309B008B170B17FE3090
:1002A0004001C8000630C900C82280314430C8006F
:1002B0000730C900C32280319A30C8000230C9001B
:1002C000CD2280319430C8000730C900D22280315D
:1002D0009D30C8000C30C900D7228031C0228E3139
:1002E00049268031C4258031B8258031BC25803134
:1002F000C0258031002180319A22803151018C1734
:10030000AB2480319A2280313E0803198D296C225A
:1003100080316C2280316C228031033040013E06F6
:10032000031D582A46080319D22930083802DE0076
:100330003108393BDF0032083A3BE00033083B3BF1
:10034000E1006108031DAE296008031DAE295F08A6
:10035000031DAE2964305E02031CB7298B13C22033
:100360008031FA268031772680310100D229300889
:100370003802DE003108393BDF0032083A3BE0004A
:1003800033083B3BE1006108031DD0296008031DD1
:10039000D0295F08031DD02932305E02031CD22908
:1003A0006C228031400143080319DB293F20803152
:1003B00001004001C30141080319E2296C22803188
:1003C0004001C10145080319400803192B2A2C08D4
:1003D0003802DE002D08393BDF002E083A3BE000F2
:1003E0002F083B3BE1006108031D002A6008031D44
:1003F000002A5F08031D002A1E305E02031C022A29
:100400000130C000400803192B2A8B13242540011A
:10041000C401C001C5014708C8000530C901CA00B0
:10042000CB018E31832680314808B4004908B500DD
:10043000890D893B8909B600B700F72600308C3159
:1004400092248031F526803140014608031D2A2A76
:10045000C02280318B17400144080319562A6923B2
:100460008031400128083802DE002908393BDF00CE
:100470002A083A3BE0002B083B3BE1006108031DE2
:100480004B2A6008031D4B2A5F08031D4B2A64306A
:100490005E02031C562A8B13C4014608031D552A0D
:1004A0004508031D552AC02280318B176300692A35
:1004B0003E08031D5E2A95208031692A3E0B632A7F
:1004C000AB248031692A02303E06031D692ACA2303
:1004D00080319A2280318D290124803141304001C0
:1004E000CE00EE30890B722ACE0B722A0000C42592
:1004F0008031B8258031BC258031C0258031413024
:100500004001CE00EE30890B832ACE0B832A0000F7
:100510000124803141304001CE00EE30890B8E2A1B
:10052000CE0B8E2A0000C4258031B8258031BC2531
:100530008031C02D7E1C9E2A8D31682D16305926A3
:1005400080314908BD004808BC000330BE008D1B47
:10055000AC2A0130BE00080002303D027B30031996
:100560003C02031CB82A3E0BB82A0230BE00080029
:1005700002303D02003003193C02031CBE0108009A
:1005800044010E1008004908E3004808E200080092
:100590004908F7004808F60008004908EB00480839
:1005A000EA0008004908E9004808E800080049088E
:1005B000E5004808E4000800D62680311E2380317B
:1005C00014238031FF228031E6268C31C42480310F
:1005D0008C31E42480318C31A4248031F7228031A5
:1005E000DE268031EE268731E0278C31F82C013071
:1005F00041019D00F0309E009B019C0108004E01CE
:100600009810823053019400033095000230960018
:1006100097014E018E108B304001C8000C30C9008C
:10062000C3224E0198140800623051018D008F01E1
:1006300091010230930090019201080004304001C2
:10064000980010309900A8309A003B309200F030AA
:10065000930057309400FF307E01CE003030C3004D
:100660001730B800C030C4003030B9000230CF00BD
:100670000430BA001030C500A830D0003F30BB00B5
:10068000C601D100BF12BE16BD164A13CA134917C0
:10069000C9174817C8178C304001C8000C30C90072
:1006A000C82280318D30C8000C30C900D12680317D
:1006B0008E30C8000C30C900CD224E0116160D3008
:1006C0007E01A3000C3092000E30A5000B30A70075
:1006D0000800C4258031B8258031BC258031C02573
:1006E0008031B325803141304001CC00EE30890BA0
:1006F000772BCC0B772B0000C8258031413040018F
:10070000CC00EE30890B822BCC0B822B0000D22543
:10071000803141304001CC00EE30890B8D2BCC0B69
:100720008D2B0000CD25803182304001CC00DD30A2
:10073000890B982BCC0B982B0032BC258031413093
:100740004001CC00EE30890BA32BCC0BA32B000077
:10075000C025803141304001CC00EE30890BAE2BFA
:10076000CC0BAE2B0000B825803141304001CC00CD
:10077000EE30890BB92BCC0BB92B0000C42580318E
:1007800041304001CC00EE30890BC42BCC0BC42B84
:1007900000000800B3258031C8258031CD25803187
:1007A000D2258031A3304001CC005530890BD62BA7
:1007B000CC0BD62BC4258031B8258031BC258031A7
:1007C000C0258031A3304001CC005530890BE62B89
:1007D000CC0BE62BB3258031C8258031CD25803167
:1007E000D2258031A3304001CC005530890BF62B47
:1007F000CC0BF62BC4258031B8258031BC25803147
:10080000C02DC4258031B8258031BC258031C0255C
:10081000803140014708CC00CD014D08003A031952
:10082000302C3D2CB32DC82DCD2DD22DB3258031AC
:10083000D22DC8258031D22DD2258031CD2DB325A2
:100840008031CD258031D22DC8258031CD25803114
:10085000D22DB3258031C8258031CD258031D22DD0
:100860004C08FF3E031C080084000A3004020318F1
:10087000080088310435003E82000800C42580311C
:10088000B8258031BC258031C02580312130400120
:10089000CC007630890B4A2CCC0B4A2C0000B325B7
:1008A0008031C8258031CD258031D225803121305D
:1008B0004001CC007630890B5B2CCC0B5B2C00000C
:1008C000C4258031B8258031BC258031C0258031D8
:1008D00021304001CC007630890B6C2CCC0B6C2C79
:1008E0000000B3258031C8258031CD258031D22547
:1008F000803121304001CC007630890B7D2CCC0B2F
:100900007D2C0000C4258031B8258031BC25803184
:10091000C025803121304001CC007630890B8E2CEF
:10092000CC0B8E2C0000B3258031C8258031CD251D
:100930008031D225803121304001CC007630890BC6
:100940009F2CCC0B9F2C0000C4258031B825803112
:10095000BC258031C02D1630592680314908BD0094
:100960004808BC00C4258031B8258031BC258031C1
:10097000C025803141304001CC00EE30890BBE2CC7
:10098000CC0BBE2C0000023040013D022F30031979
:100990003C02031CED2DB325803162304001CC00B8
:1009A0006530890BD12CCC0BD12C003202304001A8
:1009B0003D024E3003193C02031C0F2EC825803126
:1009C00062304001CC006530890BE42CCC0BE42C68
:1009D0000032023040013D026D3003193C02031C1D
:1009E000332ECD25803162304001CC006530890B3B
:1009F000F72CCC0BF72C0032D2258031823040010D
:100A0000CC00DD30890B022DCC0B022D0032C0252D
:100A1000803182304001CC00DD30890B0D2DCC0BB4
:100A20000D2D0032D225803182304001CC00DD30E6
:100A3000890B182DCC0B182D0032C0258031C42510
:100A40008031B8258031BC2DC4258031B825803156
:100A5000BC258031C025803121304001CC0076306A
:100A6000890B302DCC0B302D0000B3258031B825FB
:100A70008031BC258031C025803121304001CC003F
:100A80007630890B412DCC0B412D0000B3258031F0
:100A9000C8258031BC258031C025803121304001FE
:100AA000CC007630890B522DCC0B522D0000B32593
:100AB0008031C8258031BC258031D225803121305C
:100AC0004001CC007630890B632DCC0B632D0000E8
:100AD000B3258031C8258031CD258031D2258031A4
:100AE00021304001CC007630890B742DCC0B742D55
:100AF0000000B3258031B8258031CD258031D22545
:100B0000803121304001CC007630890B852DCC0B13
:100B1000852D0000B3258031B8258031CD25803169
:100B2000C025803121304001CC007630890B962DD4
:100B3000CC0B962D0000B3258031B8258031BC2523
:100B40008031C025803121304001CC007630890BC6
:100B5000A72DCC0BA72D0000C4258031B8258031EE
:100B6000BC258031C02D64304001C800C901D72D9B
:100B70004001C801C9018F2E4001C801C901A52E3D
:100B80004001C801C901BB2E4001C801C901D72DD0
:100B900064304001C800C9018F2E64304001C80094
:100BA000C901A52E64304001C800C901BB2E490807
:100BB000CB004808CA00CB36CA0CCB36CA0C4A0850
:100BC00046019500400148080339CA00CA0CCA0C06
:100BD0004A0CC039460194000800B32580318230A8
:100BE0004001CC00DD30890BF32DCC0BF32D00320E
:100BF000C425803182304001CC00DD30890BFE2DD0
:100C0000CC0BFE2D0032B325803182304001CC0068
:100C1000DD30890B092ECC0B092E0032C42DC825DE
:100C2000803182304001CC00DD30890B152ECC0B99
:100C3000152E0032B825803182304001CC00DD30E5
:100C4000890B202ECC0B202E0032C825803182301B
:100C50004001CC00DD30890B2B2ECC0B2B2E00322B
:100C6000B8258031C42DCD25803182304001CC00A3
:100C7000DD30890B392ECC0B392E0032BC2580316A
:100C800082304001CC00DD30890B442ECC0B442E49
:100C90000032CD25803182304001CC00DD30890B1F
:100CA0004F2ECC0B4F2E0032BC258031B825803121
:100CB000C42D4001CB00CA00CA0DCA0D41011D0858
:100CC00040014A0603394A0641019D001D140000F7
:100CD00041019D149D186A2E1C084001C900C801DD
:100CE00041011B084001C8070318C90A0800C030A9
:100CF0004001C8000E30C900CA01CA0ACB018D31BB
:100D0000A3258031C030C8000E30C9004730CA006A
:100D1000CB01CB0ACC018D31ED25F8010800490843
:100D2000CB004808CA00CB36CA0CCB36CA0C4A08DE
:100D300046019900400148080339CA00CA0CCA0C90
:100D40004A0CC0394601980008004908CB00480801
:100D5000CA00CB36CA0CCB36CA0C4A0846019D00E5
:100D6000400148080339CA00CA0CCA0C4A0CC039F1
:100D700046019C0008004908CB004808CA00CB3651
:100D8000CA0CCB36CA0C4A0847018D0040014808FE
:100D90000339CA00CA0CCA0C4A0CC03947018C007E
:100DA00008004908ED004808EC0008004F019601D2
:100DB0009701980199019A019B0108009030460122
:100DC0009600FF309500C030940008009030460136
:100DD0009A007F309900C0309800080090309E0043
:100DE0007F309D00C0309C0008009E1708004B011A
:100DF0009E13080002304001C700080040018C1A11
:100E0000182F0130C6004508031D0E2F4408031D8E
:100E10000E2FB801B901BA01BB01C82740013B0838
:100E2000B3003A08B2003908B1003808B000080031
:100E3000460803193B2F30083802F0003108393BCF
:100E4000F10032083A3BF20033083B3BF3007308F1
:100E5000031D342F7208031D342F7108031D342F16
:100E600033307002031C382F0130C300C1013B2F07
:100E7000C3010130C100C6014508031D0800440834
:100E8000031D0800912708008B278631013A031DB6
:100E9000612F01304001C5004608031D572F44084B
:100EA000031D572FB801B901BA01BB01C827400182
:100EB0003B08AF003A08AE003908AD003808AC0076
:100EC0000800400145080319822F2C083802F00061
:100ED0002D08393BF1002E083A3BF2002F083B3B2E
:100EE000F3007308031D7E2F7208031D7E2F710807
:100EF000031D7E2F1F307002031C812F0130C000A4
:100F0000822FC001C5014608031D08004408031DC7
:100F10000800912708005301140E890C890C01392F
:100F2000080044010E1008000130B4020030B53B47
:100F3000B63BB73B3708360435043404031D0800BC
:100F40000130C4004508031DAE2F4608031DAE2F17
:100F5000B801B901BA01BB01C827863140013B087D
:100F6000AB003A08AA003908A9003808A8004708C9
:100F7000F0000530F101F200F301CB277008B40056
:100F80007108B500890D893B8909B600B7000800D2
:100F900044010E140800F401F501701CD32F7208EF
:100FA000F4077308F53DF235F30DF136F00C7008D7
:100FB0007104031DCD2F7508F1007408F0000800BE
:100FC00044018F019001013091009E308D00583016
:100FD0008C000D084001E700E60144010C084001C7
:100FE000E6044E0110101A14FF304001C80007300B
:100FF000C9008231D722013044018E000800080068
:101000008431122C8431132C8431142C8431152C0E
:101010008431162C8431192C84311C2C84311F2CE2
:081020008431242C8431292CB9
:10191600080008000800080044010E1408004001F1
:10192600C8004B019C000800640080010131890B4E
:10193600982C00340130B8070030B93DBA3DBB3DA4
:101946000800903047018E007F308D00C0308C003B
:1019560008008E104001620863040319080063083A
:101966008A0062080A008C3108008C12400168085F
:1019760069040319080069088A0068080A008C319E
:1019860008000130450190008F019101FF308D0064
:101996008C014E019010803045018E0008004201F6
:1019A6009D1CD72C1D121D167B08203E8600870124
:1019B60019088100FB0A08307B020318FB01F90AAB
:1019C60008004F304B019F00E4309D009C014E0102
:1019D6008C12961603304001C8000030C9008231CF
:1019E600D22281304B019E0008004E019912D2305E
:1019F6004001C8000C30C9000F25083042019F0085
:101A06009D0104309E0001309B009C01FB01FA0100
:101A1600F9014E01991608004908EF004808EE0042
:101A26000800101040016708F1006608F00027253D
:101A36008D314001640865040319080065088A00B1
:101A460064080A008D31080044010E1D312D0E1068
:101A560071088D0070088C000E14080071088D0046
:101A660070088C0008007E01BF1E3B2D42258D317B
:101A76004A1F3F2D4E258D31CA1F08005B2D760863
:101A8600770403194B2D77088A0076080A008D31F2
:101A96007E01BF12080040016C086D040319582D21
:101AA6006D088A006C080A008D317E014A13080011
:101AB60040016A086B040319652D6B088A006A08E1
:101AC6000A008D317E01CA13080016308B258D3130
:101AD60071084001BD007008BC000330BE008D1BBC
:101AE600772D0130BE00080002303D027B3003191D
:101AF6003C02031C832D3E0B832D0230BE000800E2
:101B060002303D02003003193C02031CBE010800EE
:101B1600F300F200F20DF20D41011D0872060339C1
:101B260072069D001D14000041019D149D18992DFB
:101B36001C08F100F0011B08F0070318F10A080061
:101B46004B08D2004A08D1000530D236D10C890B99
:101B5600A82D4A081F390319B32DD10A0319D20A31
:101B660000308B1B0130D000D301D401520854023F
:101B7600031DBF2D51085302031808005408CD0059
:101B86005308CC000530CC35CD0D890BC62D480841
:101B96004C07CE0049084D3DCF004E0850019A0033
:101BA60040014F0850019B001E131E161E158B1375
:101BB60055309F00AA309F009E144001500C031C14
:101BC6008B1303188B1750011E114001D30A0319FA
:101BD600D40AB92D490850019B004001480850011C
:101BE6009A0040014A08CE0050011E131E159E168B
:101BF60000308B1B01304001CF008B13D001D10187
:101C06004C085102031D092E4B0850020318322EB0
:101C160050084E07CD0086008701010850019C0040
:101C26009D011E19182E1E159E161A081F3A1F39D9
:101C36000319232E55309F00AA309F009E142A2E8A
:101C46009E1255309F00AA309F009E141E119A0ABC
:101C560003199B0A4001D00A0319D10A032E500129
:101C66001E1D422EE0309A051F309A0703189B0A64
:101C76009E1255309F00AA309F009E141E114001EF
:101C86004F0C031C8B1303188B1708004001C60169
:101C9600C501AC01AD01AE01AF01C001BF01C30179
:101CA600C201C101B801B901BA01BB010130F80096
:101CB60079268E310B304702031C682E8631FA26B0
:101CC6008E31863177268E315D2E4708C800053065
:101CD600C901CA00CB0183264808B4004908B500EB
:101CE600890D893B8909B600B7000800C030C800D5
:101CF6000E30C9004730CA00CB01CB0ACC01982E62
:101D0600CC01CD01481C8B2E4A08CC074B08CD3D93
:101D1600CA35CB0DC936C80C48084904031D852EA3
:101D26004D08C9004C08C800080050011E134001A8
:101D3600490850019B004001480850019A004001A3
:101D4600CE01CF014C084F02031DAB2E4B084E02AD
:101D56000318080050011E1440014E084A07CD0022
:101D66008600870150011C0881009A0A03199B0A04
:0A1D76004001CE0A0319CF0AA52E82
:020000040001F9
:0A000E00EC3FFF3F9F3FFF3FFF3F25
:00000001FF
